:020000020000FC
:040000000C94340028
:1000680008E00EBF0FEF0DBF08E214E60E94A600DD
:100078000E94AF001899FECF30E540E50E94970036
:1000880026B132990E94570030990E945C0031993C
:100098000E94610034990E94750033990E947A0089
:1000A8000E949700EDCF0E94C30030E540E5089517
:1000B8000E94C1003FEF40E008950E94C300532F03
:1000C800303541F0500F503518F0303548F5089567
:1000D800300F0895483218F44832E0F00895401B74
:1000E80008950E94C10030E04FEF08950E94C300B8
:1000F800642F403541F0600F603518F0403570F4DA
:100108000895400F0895383218F4383228F00895C9
:10011800301B089540E0089530E0089540E50895C3
:1001280030E50895089530938A0040938800089533
:100138002AEF3AEF4EE94A95F1F73A95E1F72A9511
:10014800D1F708950F9300E007B906E004B900E875
:100158000AB90F9108950F9301EA0093800004E013
:100168000093810000E000938B0000938A000093C5
:100178008900009388000F9108955F9A08955F9809
:020188000895D8
:00000001FF
