:020000020000FC
:040000000C94340028
:1000680008E00EBF0FEF0DBF01E012E00E94DE00B6
:100078000E94E9001899FECF30E540E50E94CD00C6
:1000880026B130990E945C0034990E9494003199FD
:100098000E94730033990E94AB0032990E94570066
:1000A8000E94CD00EDCF30E540E570E080E0089596
:1000B800532F303541F0510F503518F0303570F569
:1000C8000895310F0895423018F4423018F0089519
:1000D800411B089540E084E138EC08950895843187
:1000E80009F007C080E070E040E030E50E940201BE
:1000F8000895532F303541F0500F503518F03035F2
:1001080068F40895300F0895413018F4413018F01C
:100118000895401B089540E00895089530E5089536
:10012800642F403541F0610F603518F0403570F5A7
:100138000895410F0895323018F4323018F00895B8
:10014800311B089530E074E148EC08950895743146
:1001580009F007C080E070E030E040E50E9402014D
:100168000895642F403541F0600F603518F0403530
:1001780068F40895400F0895313018F4313018F0BC
:100188000895301B089530E00895089540E50895D6
:10019800089530938A004093880078BD87BD0895FC
:1001A8002AEF3AEF4EE94A95F1F73A95E1F72A95A1
:1001B800D1F708950F9300E007B906E004B900EEFF
:1001C8000AB95D985E980F9108950F9301EA00931C
:1001D800800004E00093810000E000938B0000930E
:1001E8008A00009389000093880001EA04BD04E0B6
:1001F80005BD00E008BD07BD0F9108955F9A0895F9
:040208005F9808955E
:00000001FF
