:020000020000FC
:040000000C94340028
:1000680008E00EBF0FEF0DBF08E214E60E94A600DD
:100078000E94B1001899FECF30E540E50E94970034
:1000880026B132990E94570030990E945C0031993C
:100098000E94610034990E94750033990E947A0089
:1000A8000E949700EDCF0E94C50030E540E5089515
:1000B8000E94C3003FEF40E008950E94C500532FFF
:1000C800303541F0500F503518F0303548F5089567
:1000D800300F0895483218F44832E0F00895401B74
:1000E80008950E94C30030E04FEF08950E94C500B4
:1000F800642F403541F0600F603518F0403570F4DA
:100108000895400F0895383218F4383228F00895C9
:10011800301B089540E0089530E0089540E50895C3
:1001280030E50895089530938A0040938800089533
:100138002AEF3AEF4EE94A95F1F73A95E1F72A9511
:10014800D1F708950F9300E007B906E004B900EE6F
:100158000AB95D985E980F9108950F9301EA00938C
:10016800800004E00093810000E000938B0000937E
:100178008A0000938900009388000F9108955F9A80
:0601880008955F98089540
:00000001FF
