:020000020000FC
:040000000C94340028
:0200240066C1B3
:1000680018E01EBF1FEF1DBF90E00E9406010E940E
:100078000F011899FECF0E9430010E94EC0030E574
:1000880040E50E94E500789426B10E947501122F80
:100098001F711F3112F00E94370120FD0E94690074
:1000A80024FD0E94A70021FD0E94840023FD0E94D8
:1000B800C20022FD0E9463000E94E500E5CF90E0A7
:1000C80030E540E570E080E0089590E0532F30354A
:1000D80051F012E0510F503518F0303590F50FC03F
:1000E80012E0310F0CC0423018F4423020F007C043
:1000F80012E0411B04C040E084E138EC00C00895E0
:1001080090E0843109F005C080E070E040E030E51F
:1001180017C0532F303551F011E0510F503518F0FA
:10012800303578F40DC011E0310F0AC0413018F4B1
:10013800413020F005C011E0411B02C040E000C082
:10014800089530E5089590E0642F403551F012E0AD
:10015800610F603518F0403590F50FC012E0410F7F
:100168000CC0323018F4323020F007C012E0311BD6
:10017800089530E074E148EC00C0089590E07431CF
:1001880009F005C080E070E030E040E517C0642F5A
:10019800403551F011E0610F603518F0403578F4C2
:1001A8000DC011E0410F0AC0313018F4313020F091
:1001B80005C011E0311B02C030E000C0089540E5E1
:1001C800089530938A004093880078BD87BD0895CC
:1001D8000F931F932F933F9300E010E020E030E04F
:1001E8000395F1F700E01395D9F700E010E02395A7
:1001F800B9F723E73395323099F73F912F911F9143
:100208000F91089510E017B916E014B910EE1AB955
:100218005D985E98089511EA1093800014E0109399
:10022800810010E010938B0010938A0010938900CE
:100238001093880011EA14BD14E015BD10E018BD34
:1002480017BD17E01093B10011E0109370000895E6
:100258005F9A08955F98089516B1117100E011230F
:1002680009F00FEF08953EE14EE170E080E00E9452
:10027800E50026B10E9475012171222309F0F3CF10
:1002880026B10E9475012171213109F0F9CF26B1FB
:100298000E9475012171222309F0F9CF26B10E942D
:1002A800750121712223D1F320FD0E946D0124FDE7
:1002B8000E9471010E94E50026B10E94750121711A
:1002C800222309F0F9CF26B10E94750122FFFBCF46
:1002D800089540E084E138EC089530E074E148EC9A
:1002E8000895002309F0209508951F931FB793954B
:1002F80098374AF030E040E070E080E00E94E50086
:0C0308000E942C01FFCF1FBF1F91189511
:00000001FF
