:020000020000FC
:040000000C94340028
:1000680008E00EBF0FEF0DBF05E01EE10E94E4009F
:100078000E94EF001899FECF30E540E50E94D300BA
:1000880026B130990E945E0034990E9498003199F7
:100098000E94770033990E94B10032990E9457005C
:1000A8000E94D300EDCF0E940A0130E540E570E0E0
:1000B80080E008950E940801532F303541F0510F18
:1000C800503518F0303570F50895310F08954E31D8
:1000D80018F44E3118F00895411B089540E089E165
:1000E8003FEF089508950E940A01493109F005C0BB
:1000F80080E070E040E030E50895532F303541F05E
:10010800500F503518F0303568F40895300F0895C1
:10011800453018F4453018F00895401B089540E024
:100128000895089530E508950E940801642F403528
:1001380041F0610F603518F0403570F50895410FB2
:1001480008953E3118F43E3118F00895311B089592
:1001580030E079E14FEF089508950E940A0139319E
:1001680009F005C080E070E030E040E50895642FB4
:10017800403541F0600F603518F0403568F4089557
:10018800400F0895353018F4353018F00895301BB5
:10019800089530E00895089540E50895089530934E
:1001A8008A004093880077BD88BD08952AEF3AEF0A
:1001B8004EE94A95F1F73A95E1F72A95D1F708956E
:1001C8000F9300E007B906E004B900EE0AB95D989C
:1001D8005E980F9108950F9301EA0093800004E060
:1001E8000093810000E000938B0000938A00009345
:1001F80089000093880001EA04BD04E005BD00E021
:1002080008BD07BD0F9108955F9A08955F980895F6
:00000001FF
