:020000020000FC
:040000000C94340028
:1000680018E01EBF1FEF1DBF90E00E94EE000E9427
:10007800F7001899FECF0E94120130E540E50E9472
:10008800DD0026B10E944E01122F1F3112F00E948E
:10009800180120FD0E94640024FD0E94A00021FD9B
:1000A8000E947E0023FD0E94BA0022FD0E945F008C
:1000B8000E94DD00E6CF30E540E570E080E008957D
:1000C800532F303551F012E0510F503518F03035BC
:1000D80088F5089512E0310F0895423018F442303F
:1000E80020F0089512E0411B089540E084E138ECC7
:1000F80008950895843109F005C080E070E040E07B
:1001080030E50895532F303551F011E0510F503537
:1001180018F0303578F4089511E0310F0895413022
:1001280018F4413020F0089511E0411B089540E093
:100138000895089530E50895642F403551F012E090
:10014800610F603518F0403588F5089512E0410FC9
:100158000895323018F4323020F0089512E0311B3F
:10016800089530E074E148EC08950895743109F079
:1001780005C080E070E030E040E50895642F403528
:1001880051F011E0610F603518F0403578F40895AA
:1001980011E0410F0895313018F4313020F00895FE
:1001A80011E0311B089530E00895089540E5089561
:1001B800089530938A004093880078BD87BD0895DC
:1001C8002AEF3AEF4EE94A95F1F73A95E1F72A9581
:1001D800D1F7089510E017B916E014B910EE1AB95E
:1001E8005D985E98089511EA1093800014E01093CA
:1001F800810010E010938B0010938A0010938900FF
:100208001093880011EA14BD14E015BD10E018BD64
:1002180017BD08955F9A08955F98089516B11171F2
:10022800112309F00FEF08950E940E0139E149E109
:1002380070E080E00E94DD0026B10E944E0121712D
:10024800222309F0F1CF26B10E944E0121712131FC
:1002580009F0F9CF26B10E944E012171222309F03D
:10026800F9CF0E940E0126B10E944E01217122236E
:10027800C1F320FD0E94460124FD0E944A010E940C
:100288001001089540E084E138EC089530E074E10D
:1002980048EC0895002309F02095089508951895CD
:00000001FF
